{
  "_format": "hh-sol-artifact-1",
  "contractName": "GoogleDrive",
  "sourceName": "contracts/GoogleDrive.sol",
  "abi": [
    {
      "anonymous": false,
      "inputs": [
        {
          "indexed": true,
          "internalType": "address",
          "name": "from",
          "type": "address"
        },
        {
          "indexed": true,
          "internalType": "address",
          "name": "to",
          "type": "address"
        }
      ],
      "name": "AccessGranted",
      "type": "event"
    },
    {
      "anonymous": false,
      "inputs": [
        {
          "indexed": true,
          "internalType": "address",
          "name": "user",
          "type": "address"
        },
        {
          "indexed": false,
          "internalType": "string",
          "name": "url",
          "type": "string"
        }
      ],
      "name": "ImageUploaded",
      "type": "event"
    },
    {
      "inputs": [
        {
          "internalType": "address",
          "name": "",
          "type": "address"
        },
        {
          "internalType": "uint256",
          "name": "",
          "type": "uint256"
        }
      ],
      "name": "accessBy",
      "outputs": [
        {
          "internalType": "address",
          "name": "",
          "type": "address"
        }
      ],
      "stateMutability": "view",
      "type": "function"
    },
    {
      "inputs": [
        {
          "internalType": "address",
          "name": "",
          "type": "address"
        },
        {
          "internalType": "address",
          "name": "",
          "type": "address"
        }
      ],
      "name": "accessPermissions",
      "outputs": [
        {
          "internalType": "bool",
          "name": "",
          "type": "bool"
        }
      ],
      "stateMutability": "view",
      "type": "function"
    },
    {
      "inputs": [
        {
          "internalType": "address",
          "name": "",
          "type": "address"
        },
        {
          "internalType": "uint256",
          "name": "",
          "type": "uint256"
        }
      ],
      "name": "accessedPeoples",
      "outputs": [
        {
          "internalType": "address",
          "name": "",
          "type": "address"
        }
      ],
      "stateMutability": "view",
      "type": "function"
    },
    {
      "inputs": [
        {
          "internalType": "address",
          "name": "from",
          "type": "address"
        }
      ],
      "name": "buyAccess",
      "outputs": [],
      "stateMutability": "payable",
      "type": "function"
    },
    {
      "inputs": [
        {
          "internalType": "address",
          "name": "addr",
          "type": "address"
        },
        {
          "internalType": "uint256",
          "name": "_id",
          "type": "uint256"
        }
      ],
      "name": "buyImages",
      "outputs": [],
      "stateMutability": "payable",
      "type": "function"
    },
    {
      "inputs": [
        {
          "internalType": "address",
          "name": "",
          "type": "address"
        },
        {
          "internalType": "uint256",
          "name": "",
          "type": "uint256"
        }
      ],
      "name": "buyedImages",
      "outputs": [
        {
          "internalType": "string",
          "name": "image",
          "type": "string"
        },
        {
          "internalType": "uint256",
          "name": "id",
          "type": "uint256"
        }
      ],
      "stateMutability": "view",
      "type": "function"
    },
    {
      "inputs": [
        {
          "internalType": "address",
          "name": "addr",
          "type": "address"
        }
      ],
      "name": "getAccessedBy",
      "outputs": [
        {
          "internalType": "address[]",
          "name": "",
          "type": "address[]"
        }
      ],
      "stateMutability": "view",
      "type": "function"
    },
    {
      "inputs": [
        {
          "internalType": "address",
          "name": "from",
          "type": "address"
        }
      ],
      "name": "getAccessedImages",
      "outputs": [
        {
          "components": [
            {
              "internalType": "string",
              "name": "image",
              "type": "string"
            },
            {
              "internalType": "uint256",
              "name": "id",
              "type": "uint256"
            }
          ],
          "internalType": "struct GoogleDrive.Image[]",
          "name": "",
          "type": "tuple[]"
        }
      ],
      "stateMutability": "view",
      "type": "function"
    },
    {
      "inputs": [],
      "name": "getAccessedUser",
      "outputs": [
        {
          "internalType": "address[]",
          "name": "",
          "type": "address[]"
        }
      ],
      "stateMutability": "view",
      "type": "function"
    },
    {
      "inputs": [
        {
          "internalType": "address",
          "name": "addr",
          "type": "address"
        }
      ],
      "name": "getBuyedImages",
      "outputs": [
        {
          "components": [
            {
              "internalType": "string",
              "name": "image",
              "type": "string"
            },
            {
              "internalType": "uint256",
              "name": "id",
              "type": "uint256"
            }
          ],
          "internalType": "struct GoogleDrive.Image[]",
          "name": "",
          "type": "tuple[]"
        }
      ],
      "stateMutability": "view",
      "type": "function"
    },
    {
      "inputs": [],
      "name": "getWhoHasUploaded",
      "outputs": [
        {
          "internalType": "address[]",
          "name": "",
          "type": "address[]"
        }
      ],
      "stateMutability": "view",
      "type": "function"
    },
    {
      "inputs": [
        {
          "internalType": "address",
          "name": "addr",
          "type": "address"
        }
      ],
      "name": "giveAccess",
      "outputs": [],
      "stateMutability": "nonpayable",
      "type": "function"
    },
    {
      "inputs": [
        {
          "internalType": "address",
          "name": "",
          "type": "address"
        },
        {
          "internalType": "uint256",
          "name": "",
          "type": "uint256"
        }
      ],
      "name": "images",
      "outputs": [
        {
          "internalType": "string",
          "name": "image",
          "type": "string"
        },
        {
          "internalType": "uint256",
          "name": "id",
          "type": "uint256"
        }
      ],
      "stateMutability": "view",
      "type": "function"
    },
    {
      "inputs": [
        {
          "internalType": "address",
          "name": "addr",
          "type": "address"
        }
      ],
      "name": "revokeAccess",
      "outputs": [],
      "stateMutability": "nonpayable",
      "type": "function"
    },
    {
      "inputs": [
        {
          "internalType": "address",
          "name": "addr",
          "type": "address"
        },
        {
          "internalType": "string",
          "name": "url",
          "type": "string"
        }
      ],
      "name": "uploadImages",
      "outputs": [],
      "stateMutability": "nonpayable",
      "type": "function"
    },
    {
      "inputs": [
        {
          "internalType": "uint256",
          "name": "",
          "type": "uint256"
        }
      ],
      "name": "uploadedPersons",
      "outputs": [
        {
          "internalType": "address",
          "name": "",
          "type": "address"
        }
      ],
      "stateMutability": "view",
      "type": "function"
    }
  ],
  "bytecode": "0x608060405234801561001057600080fd5b50612ca7806100206000396000f3fe6080604052600436106100f35760003560e01c8063824e03711161008a578063ab19235411610059578063ab1923541461037b578063b32ac1ea146103a6578063ba390241146103e3578063cf12e870146103ff576100f3565b8063824e03711461029b57806384eb1266146102d857806385e68531146103155780638ff72f441461033e576100f3565b806364b3b525116100c657806364b3b525146101b85780636ca098b8146101f5578063801cd13014610233578063813630bb14610270576100f3565b80630d5b4340146100f85780632ac33792146101215780634fa6444d1461015f57806358ecfb1d1461019c575b600080fd5b34801561010457600080fd5b5061011f600480360381019061011a919061207e565b610428565b005b34801561012d57600080fd5b5061014860048036038101906101439190612110565b61061e565b6040516101569291906121de565b60405180910390f35b34801561016b57600080fd5b5061018660048036038101906101819190612110565b6106e7565b604051610193919061221d565b60405180910390f35b6101b660048036038101906101b19190612238565b610735565b005b3480156101c457600080fd5b506101df60048036038101906101da9190612265565b610a7e565b6040516101ec91906122c0565b60405180910390f35b34801561020157600080fd5b5061021c60048036038101906102179190612110565b610aad565b60405161022a9291906121de565b60405180910390f35b34801561023f57600080fd5b5061025a60048036038101906102559190612238565b610b76565b6040516102679190612433565b60405180910390f35b34801561027c57600080fd5b50610285610db5565b6040516102929190612513565b60405180910390f35b3480156102a757600080fd5b506102c260048036038101906102bd9190612238565b610e43565b6040516102cf9190612433565b60405180910390f35b3480156102e457600080fd5b506102ff60048036038101906102fa9190612110565b610f7d565b60405161030c919061221d565b60405180910390f35b34801561032157600080fd5b5061033c60048036038101906103379190612238565b610fcb565b005b34801561034a57600080fd5b5061036560048036038101906103609190612238565b611814565b6040516103729190612513565b60405180910390f35b34801561038757600080fd5b506103906118e1565b60405161039d9190612513565b60405180910390f35b3480156103b257600080fd5b506103cd60048036038101906103c89190612535565b6119ac565b6040516103da919061221d565b60405180910390f35b6103fd60048036038101906103f89190612110565b6119eb565b005b34801561040b57600080fd5b5061042660048036038101906104219190612238565b611bc5565b005b60008060008473ffffffffffffffffffffffffffffffffffffffff1673ffffffffffffffffffffffffffffffffffffffff16815260200190815260200160002080549050036104d5576005829080600181540180825580915050600190039060005260206000200160009091909190916101000a81548173ffffffffffffffffffffffffffffffffffffffff021916908373ffffffffffffffffffffffffffffffffffffffff1602179055505b600060016000803373ffffffffffffffffffffffffffffffffffffffff1673ffffffffffffffffffffffffffffffffffffffff168152602001908152602001600020805490506105259190612591565b9050600060405180604001604052808481526020018381525090506000808573ffffffffffffffffffffffffffffffffffffffff1673ffffffffffffffffffffffffffffffffffffffff16815260200190815260200160002081908060018154018082558091505060019003906000526020600020906002020160009091909190915060008201518160000190816105bd91906127d1565b506020820151816001015550508373ffffffffffffffffffffffffffffffffffffffff167f0f49f34f6c61bf782ad72c5a4805592127704093d7747b44ae375f5d7fd67fe98460405161061091906128a3565b60405180910390a250505050565b6000602052816000526040600020818154811061063a57600080fd5b90600052602060002090600202016000915091505080600001805461065e906125f4565b80601f016020809104026020016040519081016040528092919081815260200182805461068a906125f4565b80156106d75780601f106106ac576101008083540402835291602001916106d7565b820191906000526020600020905b8154815290600101906020018083116106ba57829003601f168201915b5050505050908060010154905082565b6003602052816000526040600020818154811061070357600080fd5b906000526020600020016000915091509054906101000a900473ffffffffffffffffffffffffffffffffffffffff1681565b64174876e80034101561077d576040517f08c379a000000000000000000000000000000000000000000000000000000000815260040161077490612911565b60405180910390fd5b60001515600160008373ffffffffffffffffffffffffffffffffffffffff1673ffffffffffffffffffffffffffffffffffffffff16815260200190815260200160002060003373ffffffffffffffffffffffffffffffffffffffff1673ffffffffffffffffffffffffffffffffffffffff16815260200190815260200160002060009054906101000a900460ff1615151461084d576040517f08c379a00000000000000000000000000000000000000000000000000000000081526004016108449061297d565b60405180910390fd5b60018060008373ffffffffffffffffffffffffffffffffffffffff1673ffffffffffffffffffffffffffffffffffffffff16815260200190815260200160002060003373ffffffffffffffffffffffffffffffffffffffff1673ffffffffffffffffffffffffffffffffffffffff16815260200190815260200160002060006101000a81548160ff021916908315150217905550600260008273ffffffffffffffffffffffffffffffffffffffff1673ffffffffffffffffffffffffffffffffffffffff168152602001908152602001600020339080600181540180825580915050600190039060005260206000200160009091909190916101000a81548173ffffffffffffffffffffffffffffffffffffffff021916908373ffffffffffffffffffffffffffffffffffffffff160217905550600360003373ffffffffffffffffffffffffffffffffffffffff1673ffffffffffffffffffffffffffffffffffffffff168152602001908152602001600020819080600181540180825580915050600190039060005260206000200160009091909190916101000a81548173ffffffffffffffffffffffffffffffffffffffff021916908373ffffffffffffffffffffffffffffffffffffffff1602179055503373ffffffffffffffffffffffffffffffffffffffff168173ffffffffffffffffffffffffffffffffffffffff167f9f520b3bfc56d06f7065d10b4683b3f57ac8895d5026cd176dee95ce1454cb8d60405160405180910390a350565b60016020528160005260406000206020528060005260406000206000915091509054906101000a900460ff1681565b60046020528160005260406000208181548110610ac957600080fd5b906000526020600020906002020160009150915050806000018054610aed906125f4565b80601f0160208091040260200160405190810160405280929190818152602001828054610b19906125f4565b8015610b665780601f10610b3b57610100808354040283529160200191610b66565b820191906000526020600020905b815481529060010190602001808311610b4957829003601f168201915b5050505050908060010154905082565b60603373ffffffffffffffffffffffffffffffffffffffff168273ffffffffffffffffffffffffffffffffffffffff161480610c3f575060011515600160008473ffffffffffffffffffffffffffffffffffffffff1673ffffffffffffffffffffffffffffffffffffffff16815260200190815260200160002060003373ffffffffffffffffffffffffffffffffffffffff1673ffffffffffffffffffffffffffffffffffffffff16815260200190815260200160002060009054906101000a900460ff161515145b610c7e576040517f08c379a0000000000000000000000000000000000000000000000000000000008152600401610c75906129e9565b60405180910390fd5b6000808373ffffffffffffffffffffffffffffffffffffffff1673ffffffffffffffffffffffffffffffffffffffff168152602001908152602001600020805480602002602001604051908101604052809291908181526020016000905b82821015610daa5783829060005260206000209060020201604051806040016040529081600082018054610d0f906125f4565b80601f0160208091040260200160405190810160405280929190818152602001828054610d3b906125f4565b8015610d885780601f10610d5d57610100808354040283529160200191610d88565b820191906000526020600020905b815481529060010190602001808311610d6b57829003601f168201915b5050505050815260200160018201548152505081526020019060010190610cdc565b505050509050919050565b60606005805480602002602001604051908101604052809291908181526020018280548015610e3957602002820191906000526020600020905b8160009054906101000a900473ffffffffffffffffffffffffffffffffffffffff1673ffffffffffffffffffffffffffffffffffffffff1681526020019060010190808311610def575b5050505050905090565b6060600460008373ffffffffffffffffffffffffffffffffffffffff1673ffffffffffffffffffffffffffffffffffffffff168152602001908152602001600020805480602002602001604051908101604052809291908181526020016000905b82821015610f725783829060005260206000209060020201604051806040016040529081600082018054610ed7906125f4565b80601f0160208091040260200160405190810160405280929190818152602001828054610f03906125f4565b8015610f505780601f10610f2557610100808354040283529160200191610f50565b820191906000526020600020905b815481529060010190602001808311610f3357829003601f168201915b5050505050815260200160018201548152505081526020019060010190610ea4565b505050509050919050565b60026020528160005260406000208181548110610f9957600080fd5b906000526020600020016000915091509054906101000a900473ffffffffffffffffffffffffffffffffffffffff1681565b60011515600160003373ffffffffffffffffffffffffffffffffffffffff1673ffffffffffffffffffffffffffffffffffffffff16815260200190815260200160002060008373ffffffffffffffffffffffffffffffffffffffff1673ffffffffffffffffffffffffffffffffffffffff16815260200190815260200160002060009054906101000a900460ff1615151461109b576040517f08c379a000000000000000000000000000000000000000000000000000000000815260040161109290612a55565b60405180910390fd5b6000600160003373ffffffffffffffffffffffffffffffffffffffff1673ffffffffffffffffffffffffffffffffffffffff16815260200190815260200160002060008373ffffffffffffffffffffffffffffffffffffffff1673ffffffffffffffffffffffffffffffffffffffff16815260200190815260200160002060006101000a81548160ff021916908315150217905550600080600090505b600260003373ffffffffffffffffffffffffffffffffffffffff1673ffffffffffffffffffffffffffffffffffffffff16815260200190815260200160002080549050811015611241578273ffffffffffffffffffffffffffffffffffffffff16600260003373ffffffffffffffffffffffffffffffffffffffff1673ffffffffffffffffffffffffffffffffffffffff16815260200190815260200160002082815481106111ea576111e9612a75565b5b9060005260206000200160009054906101000a900473ffffffffffffffffffffffffffffffffffffffff1673ffffffffffffffffffffffffffffffffffffffff1603611234578091505b8080600101915050611138565b5060008190505b6001600260003373ffffffffffffffffffffffffffffffffffffffff1673ffffffffffffffffffffffffffffffffffffffff168152602001908152602001600020805490506112979190612aa4565b8110156114f3576000600260003373ffffffffffffffffffffffffffffffffffffffff1673ffffffffffffffffffffffffffffffffffffffff16815260200190815260200160002082815481106112f1576112f0612a75565b5b9060005260206000200160009054906101000a900473ffffffffffffffffffffffffffffffffffffffff169050600260003373ffffffffffffffffffffffffffffffffffffffff1673ffffffffffffffffffffffffffffffffffffffff16815260200190815260200160002060018361136a9190612591565b8154811061137b5761137a612a75565b5b9060005260206000200160009054906101000a900473ffffffffffffffffffffffffffffffffffffffff16600260003373ffffffffffffffffffffffffffffffffffffffff1673ffffffffffffffffffffffffffffffffffffffff16815260200190815260200160002083815481106113f7576113f6612a75565b5b9060005260206000200160006101000a81548173ffffffffffffffffffffffffffffffffffffffff021916908373ffffffffffffffffffffffffffffffffffffffff16021790555080600260003373ffffffffffffffffffffffffffffffffffffffff1673ffffffffffffffffffffffffffffffffffffffff16815260200190815260200160002060018461148c9190612591565b8154811061149d5761149c612a75565b5b9060005260206000200160006101000a81548173ffffffffffffffffffffffffffffffffffffffff021916908373ffffffffffffffffffffffffffffffffffffffff160217905550508080600101915050611248565b50600260003373ffffffffffffffffffffffffffffffffffffffff1673ffffffffffffffffffffffffffffffffffffffff16815260200190815260200160002080548061154357611542612ad8565b5b6001900381819060005260206000200160006101000a81549073ffffffffffffffffffffffffffffffffffffffff021916905590556000600360008473ffffffffffffffffffffffffffffffffffffffff1673ffffffffffffffffffffffffffffffffffffffff168152602001908152602001600020905060005b81805490508110156117c8573373ffffffffffffffffffffffffffffffffffffffff168282815481106115f4576115f3612a75565b5b9060005260206000200160009054906101000a900473ffffffffffffffffffffffffffffffffffffffff1673ffffffffffffffffffffffffffffffffffffffff16036117bb5760008190505b600183805490506116519190612aa4565b8110156117b5576000836001846116689190612591565b8154811061167957611678612a75565b5b9060005260206000200160009054906101000a900473ffffffffffffffffffffffffffffffffffffffff1690508383815481106116b9576116b8612a75565b5b9060005260206000200160009054906101000a900473ffffffffffffffffffffffffffffffffffffffff16846001856116f29190612591565b8154811061170357611702612a75565b5b9060005260206000200160006101000a81548173ffffffffffffffffffffffffffffffffffffffff021916908373ffffffffffffffffffffffffffffffffffffffff1602179055508084848154811061175f5761175e612a75565b5b9060005260206000200160006101000a81548173ffffffffffffffffffffffffffffffffffffffff021916908373ffffffffffffffffffffffffffffffffffffffff160217905550508080600101915050611640565b506117c8565b80806001019150506115be565b50808054806117da576117d9612ad8565b5b6001900381819060005260206000200160006101000a81549073ffffffffffffffffffffffffffffffffffffffff02191690559055505050565b6060600360008373ffffffffffffffffffffffffffffffffffffffff1673ffffffffffffffffffffffffffffffffffffffff1681526020019081526020016000208054806020026020016040519081016040528092919081815260200182805480156118d557602002820191906000526020600020905b8160009054906101000a900473ffffffffffffffffffffffffffffffffffffffff1673ffffffffffffffffffffffffffffffffffffffff168152602001906001019080831161188b575b50505050509050919050565b6060600260003373ffffffffffffffffffffffffffffffffffffffff1673ffffffffffffffffffffffffffffffffffffffff1681526020019081526020016000208054806020026020016040519081016040528092919081815260200182805480156119a257602002820191906000526020600020905b8160009054906101000a900473ffffffffffffffffffffffffffffffffffffffff1673ffffffffffffffffffffffffffffffffffffffff1681526020019060010190808311611958575b5050505050905090565b600581815481106119bc57600080fd5b906000526020600020016000915054906101000a900473ffffffffffffffffffffffffffffffffffffffff1681565b64174876e800341015611a33576040517f08c379a0000000000000000000000000000000000000000000000000000000008152600401611a2a90612911565b60405180910390fd5b60008060008473ffffffffffffffffffffffffffffffffffffffff1673ffffffffffffffffffffffffffffffffffffffff16815260200190815260200160002080549050118015611ac457506000808373ffffffffffffffffffffffffffffffffffffffff1673ffffffffffffffffffffffffffffffffffffffff1681526020019081526020016000208054905081105b8015611ad1575060008110155b611ada57600080fd5b600460003373ffffffffffffffffffffffffffffffffffffffff1673ffffffffffffffffffffffffffffffffffffffff1681526020019081526020016000206000808473ffffffffffffffffffffffffffffffffffffffff1673ffffffffffffffffffffffffffffffffffffffff1681526020019081526020016000208281548110611b6957611b68612a75565b5b9060005260206000209060020201908060018154018082558091505060019003906000526020600020906002020160009091909190915060008201816000019081611bb49190612b1d565b506001820154816001015550505050565b60001515600160003373ffffffffffffffffffffffffffffffffffffffff1673ffffffffffffffffffffffffffffffffffffffff16815260200190815260200160002060008373ffffffffffffffffffffffffffffffffffffffff1673ffffffffffffffffffffffffffffffffffffffff16815260200190815260200160002060009054906101000a900460ff16151514611c95576040517f08c379a0000000000000000000000000000000000000000000000000000000008152600401611c8c90612c51565b60405180910390fd5b60018060003373ffffffffffffffffffffffffffffffffffffffff1673ffffffffffffffffffffffffffffffffffffffff16815260200190815260200160002060008373ffffffffffffffffffffffffffffffffffffffff1673ffffffffffffffffffffffffffffffffffffffff16815260200190815260200160002060006101000a81548160ff021916908315150217905550600260003373ffffffffffffffffffffffffffffffffffffffff1673ffffffffffffffffffffffffffffffffffffffff168152602001908152602001600020819080600181540180825580915050600190039060005260206000200160009091909190916101000a81548173ffffffffffffffffffffffffffffffffffffffff021916908373ffffffffffffffffffffffffffffffffffffffff160217905550600360008273ffffffffffffffffffffffffffffffffffffffff1673ffffffffffffffffffffffffffffffffffffffff168152602001908152602001600020339080600181540180825580915050600190039060005260206000200160009091909190916101000a81548173ffffffffffffffffffffffffffffffffffffffff021916908373ffffffffffffffffffffffffffffffffffffffff1602179055508073ffffffffffffffffffffffffffffffffffffffff163373ffffffffffffffffffffffffffffffffffffffff167f9f520b3bfc56d06f7065d10b4683b3f57ac8895d5026cd176dee95ce1454cb8d60405160405180910390a350565b6000604051905090565b600080fd5b600080fd5b600073ffffffffffffffffffffffffffffffffffffffff82169050919050565b6000611f0582611eda565b9050919050565b611f1581611efa565b8114611f2057600080fd5b50565b600081359050611f3281611f0c565b92915050565b600080fd5b600080fd5b6000601f19601f8301169050919050565b7f4e487b7100000000000000000000000000000000000000000000000000000000600052604160045260246000fd5b611f8b82611f42565b810181811067ffffffffffffffff82111715611faa57611fa9611f53565b5b80604052505050565b6000611fbd611ec6565b9050611fc98282611f82565b919050565b600067ffffffffffffffff821115611fe957611fe8611f53565b5b611ff282611f42565b9050602081019050919050565b82818337600083830152505050565b600061202161201c84611fce565b611fb3565b90508281526020810184848401111561203d5761203c611f3d565b5b612048848285611fff565b509392505050565b600082601f83011261206557612064611f38565b5b813561207584826020860161200e565b91505092915050565b6000806040838503121561209557612094611ed0565b5b60006120a385828601611f23565b925050602083013567ffffffffffffffff8111156120c4576120c3611ed5565b5b6120d085828601612050565b9150509250929050565b6000819050919050565b6120ed816120da565b81146120f857600080fd5b50565b60008135905061210a816120e4565b92915050565b6000806040838503121561212757612126611ed0565b5b600061213585828601611f23565b9250506020612146858286016120fb565b9150509250929050565b600081519050919050565b600082825260208201905092915050565b60005b8381101561218a57808201518184015260208101905061216f565b60008484015250505050565b60006121a182612150565b6121ab818561215b565b93506121bb81856020860161216c565b6121c481611f42565b840191505092915050565b6121d8816120da565b82525050565b600060408201905081810360008301526121f88185612196565b905061220760208301846121cf565b9392505050565b61221781611efa565b82525050565b6000602082019050612232600083018461220e565b92915050565b60006020828403121561224e5761224d611ed0565b5b600061225c84828501611f23565b91505092915050565b6000806040838503121561227c5761227b611ed0565b5b600061228a85828601611f23565b925050602061229b85828601611f23565b9150509250929050565b60008115159050919050565b6122ba816122a5565b82525050565b60006020820190506122d560008301846122b1565b92915050565b600081519050919050565b600082825260208201905092915050565b6000819050602082019050919050565b600082825260208201905092915050565b600061232382612150565b61232d8185612307565b935061233d81856020860161216c565b61234681611f42565b840191505092915050565b61235a816120da565b82525050565b6000604083016000830151848203600086015261237d8282612318565b91505060208301516123926020860182612351565b508091505092915050565b60006123a98383612360565b905092915050565b6000602082019050919050565b60006123c9826122db565b6123d381856122e6565b9350836020820285016123e5856122f7565b8060005b858110156124215784840389528151612402858261239d565b945061240d836123b1565b925060208a019950506001810190506123e9565b50829750879550505050505092915050565b6000602082019050818103600083015261244d81846123be565b905092915050565b600081519050919050565b600082825260208201905092915050565b6000819050602082019050919050565b61248a81611efa565b82525050565b600061249c8383612481565b60208301905092915050565b6000602082019050919050565b60006124c082612455565b6124ca8185612460565b93506124d583612471565b8060005b838110156125065781516124ed8882612490565b97506124f8836124a8565b9250506001810190506124d9565b5085935050505092915050565b6000602082019050818103600083015261252d81846124b5565b905092915050565b60006020828403121561254b5761254a611ed0565b5b6000612559848285016120fb565b91505092915050565b7f4e487b7100000000000000000000000000000000000000000000000000000000600052601160045260246000fd5b600061259c826120da565b91506125a7836120da565b92508282019050808211156125bf576125be612562565b5b92915050565b7f4e487b7100000000000000000000000000000000000000000000000000000000600052602260045260246000fd5b6000600282049050600182168061260c57607f821691505b60208210810361261f5761261e6125c5565b5b50919050565b60008190508160005260206000209050919050565b60006020601f8301049050919050565b600082821b905092915050565b6000600883026126877fffffffffffffffffffffffffffffffffffffffffffffffffffffffffffffffff8261264a565b612691868361264a565b95508019841693508086168417925050509392505050565b6000819050919050565b60006126ce6126c96126c4846120da565b6126a9565b6120da565b9050919050565b6000819050919050565b6126e8836126b3565b6126fc6126f4826126d5565b848454612657565b825550505050565b600090565b612711612704565b61271c8184846126df565b505050565b5b8181101561274057612735600082612709565b600181019050612722565b5050565b601f8211156127855761275681612625565b61275f8461263a565b8101602085101561276e578190505b61278261277a8561263a565b830182612721565b50505b505050565b600082821c905092915050565b60006127a86000198460080261278a565b1980831691505092915050565b60006127c18383612797565b9150826002028217905092915050565b6127da82612150565b67ffffffffffffffff8111156127f3576127f2611f53565b5b6127fd82546125f4565b612808828285612744565b600060209050601f83116001811461283b5760008415612829578287015190505b61283385826127b5565b86555061289b565b601f19841661284986612625565b60005b828110156128715784890151825560018201915060208501945060208101905061284c565b8683101561288e578489015161288a601f891682612797565b8355505b6001600288020188555050505b505050505050565b600060208201905081810360008301526128bd8184612196565b905092915050565b7f4e6f742073756666696369656e742062616c616e636500000000000000000000600082015250565b60006128fb60168361215b565b9150612906826128c5565b602082019050919050565b6000602082019050818103600083015261292a816128ee565b9050919050565b7f616c726561647920616363657373656400000000000000000000000000000000600082015250565b600061296760108361215b565b915061297282612931565b602082019050919050565b600060208201905081810360008301526129968161295a565b9050919050565b7f416363657373206e6f74206772616e7465640000000000000000000000000000600082015250565b60006129d360128361215b565b91506129de8261299d565b602082019050919050565b60006020820190508181036000830152612a02816129c6565b9050919050565b7f416c7265616479206e6f74206163636573736564000000000000000000000000600082015250565b6000612a3f60148361215b565b9150612a4a82612a09565b602082019050919050565b60006020820190508181036000830152612a6e81612a32565b9050919050565b7f4e487b7100000000000000000000000000000000000000000000000000000000600052603260045260246000fd5b6000612aaf826120da565b9150612aba836120da565b9250828203905081811115612ad257612ad1612562565b5b92915050565b7f4e487b7100000000000000000000000000000000000000000000000000000000600052603160045260246000fd5b600081549050612b16816125f4565b9050919050565b818103612b2b575050612c03565b612b3482612b07565b67ffffffffffffffff811115612b4d57612b4c611f53565b5b612b5782546125f4565b612b62828285612744565b6000601f831160018114612b915760008415612b7f578287015490505b612b8985826127b5565b865550612bfc565b601f198416612b9f87612625565b9650612baa86612625565b60005b82811015612bd257848901548255600182019150600185019450602081019050612bad565b86831015612bef5784890154612beb601f891682612797565b8355505b6001600288020188555050505b5050505050505b565b7f616c726561647920616363657373000000000000000000000000000000000000600082015250565b6000612c3b600e8361215b565b9150612c4682612c05565b602082019050919050565b60006020820190508181036000830152612c6a81612c2e565b905091905056fea2646970667358221220a5eb022054fd873036556aa3a513a7c5e3bfd19b06933547d5f1135389292d1d64736f6c63430008180033",
  "linkReferences": {},
  "deployedLinkReferences": {}
}